{
  "contractName": "EthtoDai",
  "abi": [
    {
      "inputs": [
        {
          "internalType": "uint256",
          "name": "_eth",
          "type": "uint256"
        },
        {
          "internalType": "uint256",
          "name": "_dai",
          "type": "uint256"
        }
      ],
      "name": "main",
      "outputs": [
        {
          "internalType": "bool",
          "name": "",
          "type": "bool"
        }
      ],
      "stateMutability": "nonpayable",
      "type": "function"
    }
  ],
  "bytecode": "0x608060405273cc9a0b7c43dc2a5f023bb9b738e45b0ef6b06e04600160006101000a81548173ffffffffffffffffffffffffffffffffffffffff021916908373ffffffffffffffffffffffffffffffffffffffff1602179055506000600160146101000a81548161ffff021916908361ffff160217905550736b175474e89094c44da98b954eedeac495271d0f600260006101000a81548173ffffffffffffffffffffffffffffffffffffffff021916908373ffffffffffffffffffffffffffffffffffffffff16021790555060016003553480156100dd57600080fd5b506104fe806100ed6000396000f3fe608060405234801561001057600080fd5b506004361061002b5760003560e01c8063cc572cf914610030575b600080fd5b6100666004803603604081101561004657600080fd5b81019080803590602001909291908035906020019092919050505061007e565b60405180821515815260200191505060405180910390f35b600073b53c1a33016b2dc2ff3653530bff1848a515c8c56000806101000a81548173ffffffffffffffffffffffffffffffffffffffff021916908373ffffffffffffffffffffffffffffffffffffffff16021790555060008060009054906101000a900473ffffffffffffffffffffffffffffffffffffffff1673ffffffffffffffffffffffffffffffffffffffff16630261bf8b6040518163ffffffff1660e01b815260040160206040518083038186803b15801561013d57600080fd5b505afa158015610151573d6000803e3d6000fd5b505050506040513d602081101561016757600080fd5b81019080805190602001909291905050509050600160009054906101000a900473ffffffffffffffffffffffffffffffffffffffff1673ffffffffffffffffffffffffffffffffffffffff1663095ea7b360008054906101000a900473ffffffffffffffffffffffffffffffffffffffff1673ffffffffffffffffffffffffffffffffffffffff16630261bf8b6040518163ffffffff1660e01b815260040160206040518083038186803b15801561021e57600080fd5b505afa158015610232573d6000803e3d6000fd5b505050506040513d602081101561024857600080fd5b8101908080519060200190929190505050866040518363ffffffff1660e01b8152600401808373ffffffffffffffffffffffffffffffffffffffff16815260200182815260200192505050602060405180830381600087803b1580156102ad57600080fd5b505af11580156102c1573d6000803e3d6000fd5b505050506040513d60208110156102d757600080fd5b8101908080519060200190929190505050508073ffffffffffffffffffffffffffffffffffffffff1663e8eda9df600160009054906101000a900473ffffffffffffffffffffffffffffffffffffffff168633600160149054906101000a900461ffff166040518563ffffffff1660e01b8152600401808573ffffffffffffffffffffffffffffffffffffffff1681526020018481526020018373ffffffffffffffffffffffffffffffffffffffff1681526020018261ffff168152602001945050505050600060405180830381600087803b1580156103b657600080fd5b505af11580156103ca573d6000803e3d6000fd5b505050508073ffffffffffffffffffffffffffffffffffffffff1663a415bcad600260009054906101000a900473ffffffffffffffffffffffffffffffffffffffff1685600354600160149054906101000a900461ffff16336040518663ffffffff1660e01b8152600401808673ffffffffffffffffffffffffffffffffffffffff1681526020018581526020018481526020018361ffff1681526020018273ffffffffffffffffffffffffffffffffffffffff16815260200195505050505050600060405180830381600087803b1580156104a557600080fd5b505af11580156104b9573d6000803e3d6000fd5b5050505060019150509291505056fea2646970667358221220cab23e6ab3941393df912125f818f55fc5fe3a49e2fecbce864becb3f9ad63f564736f6c634300060c0033",
  "immutableReferences": {},
  "source": "// SPDX-License-Identifier: agpl-3.0\npragma solidity ^0.6.12;\n\nimport {LendingPoolAddressesProvider} from '@aave/protocol-v2/contracts/protocol/configuration/LendingPoolAddressesProvider.sol';\nimport {LendingPool, IERC20} from '@aave/protocol-v2/contracts/protocol/lendingpool/LendingPool.sol';\n\n//import '@openzeppelin/contracts/token/ERC20/IERC20.sol';\n\n\ncontract EthtoDai {\n\n    LendingPoolAddressesProvider provider;\n    address _wEthAddress = 0xcc9a0B7c43DC2a5F023Bb9b738E45B0Ef6B06E04;\n    uint16 _referralCode = 0;\n    address _daiAddress = 0x6B175474E89094C44Da98b954EedeAC495271d0F;\n    uint256 _variableRate = 1;\n\n\nfunction main(uint256 _eth, uint256 _dai) public returns (bool) {\n//require(msg.sender != address(0));\nprovider = LendingPoolAddressesProvider(address(0xB53C1a33016B2DC2fF3653530bfF1848a515c8c5));\nLendingPool lendingPool = LendingPool(provider.getLendingPool());\n\n//Approve LendingPool contract to move your Eth\nIERC20(_wEthAddress).approve(provider.getLendingPool(), _eth);\n\n//Deposit Eth\nlendingPool.deposit(_wEthAddress, _eth, msg.sender, _referralCode);\n\n\n//Borrow Dai\nlendingPool.borrow(_daiAddress, _dai, _variableRate, _referralCode, msg.sender);\n\n\nreturn (true);\n\n\n}\n\n\n\n}\n",
  "sourcePath": "/home/manraj/aave_borrow/src/contracts/EthtoDai.sol",
  "compiler": {
    "name": "solc",
    "version": "0.6.12+commit.27d51765.Emscripten.clang"
  },
  "schemaVersion": "3.4.1",
  "updatedAt": "2021-05-18T01:25:53.523Z",
  "devdoc": {
    "kind": "dev",
    "methods": {},
    "version": 1
  },
  "userdoc": {
    "kind": "user",
    "methods": {},
    "version": 1
  }
}