{
  "contractName": "LendingPoolAddressesProvider",
  "abi": [
    {
      "inputs": [
        {
          "internalType": "string",
          "name": "marketId",
          "type": "string"
        }
      ],
      "stateMutability": "nonpayable",
      "type": "constructor"
    },
    {
      "anonymous": false,
      "inputs": [
        {
          "indexed": false,
          "internalType": "bytes32",
          "name": "id",
          "type": "bytes32"
        },
        {
          "indexed": true,
          "internalType": "address",
          "name": "newAddress",
          "type": "address"
        },
        {
          "indexed": false,
          "internalType": "bool",
          "name": "hasProxy",
          "type": "bool"
        }
      ],
      "name": "AddressSet",
      "type": "event"
    },
    {
      "anonymous": false,
      "inputs": [
        {
          "indexed": true,
          "internalType": "address",
          "name": "newAddress",
          "type": "address"
        }
      ],
      "name": "ConfigurationAdminUpdated",
      "type": "event"
    },
    {
      "anonymous": false,
      "inputs": [
        {
          "indexed": true,
          "internalType": "address",
          "name": "newAddress",
          "type": "address"
        }
      ],
      "name": "EmergencyAdminUpdated",
      "type": "event"
    },
    {
      "anonymous": false,
      "inputs": [
        {
          "indexed": true,
          "internalType": "address",
          "name": "newAddress",
          "type": "address"
        }
      ],
      "name": "LendingPoolCollateralManagerUpdated",
      "type": "event"
    },
    {
      "anonymous": false,
      "inputs": [
        {
          "indexed": true,
          "internalType": "address",
          "name": "newAddress",
          "type": "address"
        }
      ],
      "name": "LendingPoolConfiguratorUpdated",
      "type": "event"
    },
    {
      "anonymous": false,
      "inputs": [
        {
          "indexed": true,
          "internalType": "address",
          "name": "newAddress",
          "type": "address"
        }
      ],
      "name": "LendingPoolUpdated",
      "type": "event"
    },
    {
      "anonymous": false,
      "inputs": [
        {
          "indexed": true,
          "internalType": "address",
          "name": "newAddress",
          "type": "address"
        }
      ],
      "name": "LendingRateOracleUpdated",
      "type": "event"
    },
    {
      "anonymous": false,
      "inputs": [
        {
          "indexed": false,
          "internalType": "string",
          "name": "newMarketId",
          "type": "string"
        }
      ],
      "name": "MarketIdSet",
      "type": "event"
    },
    {
      "anonymous": false,
      "inputs": [
        {
          "indexed": true,
          "internalType": "address",
          "name": "previousOwner",
          "type": "address"
        },
        {
          "indexed": true,
          "internalType": "address",
          "name": "newOwner",
          "type": "address"
        }
      ],
      "name": "OwnershipTransferred",
      "type": "event"
    },
    {
      "anonymous": false,
      "inputs": [
        {
          "indexed": true,
          "internalType": "address",
          "name": "newAddress",
          "type": "address"
        }
      ],
      "name": "PriceOracleUpdated",
      "type": "event"
    },
    {
      "anonymous": false,
      "inputs": [
        {
          "indexed": false,
          "internalType": "bytes32",
          "name": "id",
          "type": "bytes32"
        },
        {
          "indexed": true,
          "internalType": "address",
          "name": "newAddress",
          "type": "address"
        }
      ],
      "name": "ProxyCreated",
      "type": "event"
    },
    {
      "inputs": [],
      "name": "owner",
      "outputs": [
        {
          "internalType": "address",
          "name": "",
          "type": "address"
        }
      ],
      "stateMutability": "view",
      "type": "function"
    },
    {
      "inputs": [],
      "name": "renounceOwnership",
      "outputs": [],
      "stateMutability": "nonpayable",
      "type": "function"
    },
    {
      "inputs": [
        {
          "internalType": "address",
          "name": "newOwner",
          "type": "address"
        }
      ],
      "name": "transferOwnership",
      "outputs": [],
      "stateMutability": "nonpayable",
      "type": "function"
    },
    {
      "inputs": [],
      "name": "getMarketId",
      "outputs": [
        {
          "internalType": "string",
          "name": "",
          "type": "string"
        }
      ],
      "stateMutability": "view",
      "type": "function"
    },
    {
      "inputs": [
        {
          "internalType": "string",
          "name": "marketId",
          "type": "string"
        }
      ],
      "name": "setMarketId",
      "outputs": [],
      "stateMutability": "nonpayable",
      "type": "function"
    },
    {
      "inputs": [
        {
          "internalType": "bytes32",
          "name": "id",
          "type": "bytes32"
        },
        {
          "internalType": "address",
          "name": "implementationAddress",
          "type": "address"
        }
      ],
      "name": "setAddressAsProxy",
      "outputs": [],
      "stateMutability": "nonpayable",
      "type": "function"
    },
    {
      "inputs": [
        {
          "internalType": "bytes32",
          "name": "id",
          "type": "bytes32"
        },
        {
          "internalType": "address",
          "name": "newAddress",
          "type": "address"
        }
      ],
      "name": "setAddress",
      "outputs": [],
      "stateMutability": "nonpayable",
      "type": "function"
    },
    {
      "inputs": [
        {
          "internalType": "bytes32",
          "name": "id",
          "type": "bytes32"
        }
      ],
      "name": "getAddress",
      "outputs": [
        {
          "internalType": "address",
          "name": "",
          "type": "address"
        }
      ],
      "stateMutability": "view",
      "type": "function"
    },
    {
      "inputs": [],
      "name": "getLendingPool",
      "outputs": [
        {
          "internalType": "address",
          "name": "",
          "type": "address"
        }
      ],
      "stateMutability": "view",
      "type": "function"
    },
    {
      "inputs": [
        {
          "internalType": "address",
          "name": "pool",
          "type": "address"
        }
      ],
      "name": "setLendingPoolImpl",
      "outputs": [],
      "stateMutability": "nonpayable",
      "type": "function"
    },
    {
      "inputs": [],
      "name": "getLendingPoolConfigurator",
      "outputs": [
        {
          "internalType": "address",
          "name": "",
          "type": "address"
        }
      ],
      "stateMutability": "view",
      "type": "function"
    },
    {
      "inputs": [
        {
          "internalType": "address",
          "name": "configurator",
          "type": "address"
        }
      ],
      "name": "setLendingPoolConfiguratorImpl",
      "outputs": [],
      "stateMutability": "nonpayable",
      "type": "function"
    },
    {
      "inputs": [],
      "name": "getLendingPoolCollateralManager",
      "outputs": [
        {
          "internalType": "address",
          "name": "",
          "type": "address"
        }
      ],
      "stateMutability": "view",
      "type": "function"
    },
    {
      "inputs": [
        {
          "internalType": "address",
          "name": "manager",
          "type": "address"
        }
      ],
      "name": "setLendingPoolCollateralManager",
      "outputs": [],
      "stateMutability": "nonpayable",
      "type": "function"
    },
    {
      "inputs": [],
      "name": "getPoolAdmin",
      "outputs": [
        {
          "internalType": "address",
          "name": "",
          "type": "address"
        }
      ],
      "stateMutability": "view",
      "type": "function"
    },
    {
      "inputs": [
        {
          "internalType": "address",
          "name": "admin",
          "type": "address"
        }
      ],
      "name": "setPoolAdmin",
      "outputs": [],
      "stateMutability": "nonpayable",
      "type": "function"
    },
    {
      "inputs": [],
      "name": "getEmergencyAdmin",
      "outputs": [
        {
          "internalType": "address",
          "name": "",
          "type": "address"
        }
      ],
      "stateMutability": "view",
      "type": "function"
    },
    {
      "inputs": [
        {
          "internalType": "address",
          "name": "emergencyAdmin",
          "type": "address"
        }
      ],
      "name": "setEmergencyAdmin",
      "outputs": [],
      "stateMutability": "nonpayable",
      "type": "function"
    },
    {
      "inputs": [],
      "name": "getPriceOracle",
      "outputs": [
        {
          "internalType": "address",
          "name": "",
          "type": "address"
        }
      ],
      "stateMutability": "view",
      "type": "function"
    },
    {
      "inputs": [
        {
          "internalType": "address",
          "name": "priceOracle",
          "type": "address"
        }
      ],
      "name": "setPriceOracle",
      "outputs": [],
      "stateMutability": "nonpayable",
      "type": "function"
    },
    {
      "inputs": [],
      "name": "getLendingRateOracle",
      "outputs": [
        {
          "internalType": "address",
          "name": "",
          "type": "address"
        }
      ],
      "stateMutability": "view",
      "type": "function"
    },
    {
      "inputs": [
        {
          "internalType": "address",
          "name": "lendingRateOracle",
          "type": "address"
        }
      ],
      "name": "setLendingRateOracle",
      "outputs": [],
      "stateMutability": "nonpayable",
      "type": "function"
    }
  ],
  "bytecode": "0x60806040523480156200001157600080fd5b5060405162002d9238038062002d92833981810160405260208110156200003757600080fd5b81019080805160405193929190846401000000008211156200005857600080fd5b838201915060208201858111156200006f57600080fd5b82518660018202830111640100000000821117156200008d57600080fd5b8083526020830192505050908051906020019080838360005b83811015620000c3578082015181840152602081019050620000a6565b50505050905090810190601f168015620000f15780820380516001836020036101000a031916815260200191505b5060405250505060006200010a620001c060201b60201c565b9050806000806101000a81548173ffffffffffffffffffffffffffffffffffffffff021916908373ffffffffffffffffffffffffffffffffffffffff1602179055508073ffffffffffffffffffffffffffffffffffffffff16600073ffffffffffffffffffffffffffffffffffffffff167f8be0079c531659141344cd1fd0a4f28419497f9722a3daafe3b4186f6b6457e060405160405180910390a350620001b981620001c860201b60201c565b5062000329565b600033905090565b8060019080519060200190620001e092919062000283565b507f5e667c32fd847cf8bce48ab3400175cbf107bdc82b2dea62e3364909dfaee799816040518080602001828103825283818151815260200191508051906020019080838360005b838110156200024557808201518184015260208101905062000228565b50505050905090810190601f168015620002735780820380516001836020036101000a031916815260200191505b509250505060405180910390a150565b828054600181600116156101000203166002900490600052602060002090601f016020900481019282601f10620002c657805160ff1916838001178555620002f7565b82800160010185558215620002f7579182015b82811115620002f6578251825591602001919060010190620002d9565b5b5090506200030691906200030a565b5090565b5b80821115620003255760008160009055506001016200030b565b5090565b612a5980620003396000396000f3fe608060405234801561001057600080fd5b50600436106101425760003560e01c8063715018a6116100b8578063c12542df1161007c578063c12542df1461054a578063ca446dd91461058e578063ddcaa9ea146105dc578063f2fde38b14610610578063f67b184714610654578063fca513a81461070f57610142565b8063715018a614610460578063820d12741461046a57806385c858b1146104ae5780638da5cb5b146104e2578063aecda3781461051657610142565b8063398e55531161010a578063398e55531461028f578063530e784f146102d3578063568ef470146103175780635aef021f1461039a5780635dcc528c146103de578063712d91711461042c57610142565b80630261bf8b1461014757806321f8a7211461017b578063283d62ad146101d357806335da3394146102175780633618abba1461025b575b600080fd5b61014f610743565b604051808273ffffffffffffffffffffffffffffffffffffffff16815260200191505060405180910390f35b6101a76004803603602081101561019157600080fd5b8101908080359060200190929190505050610773565b604051808273ffffffffffffffffffffffffffffffffffffffff16815260200191505060405180910390f35b610215600480360360208110156101e957600080fd5b81019080803573ffffffffffffffffffffffffffffffffffffffff1690602001909291905050506107b0565b005b6102596004803603602081101561022d57600080fd5b81019080803573ffffffffffffffffffffffffffffffffffffffff169060200190929190505050610930565b005b610263610ab0565b604051808273ffffffffffffffffffffffffffffffffffffffff16815260200191505060405180910390f35b6102d1600480360360208110156102a557600080fd5b81019080803573ffffffffffffffffffffffffffffffffffffffff169060200190929190505050610ae0565b005b610315600480360360208110156102e957600080fd5b81019080803573ffffffffffffffffffffffffffffffffffffffff169060200190929190505050610c60565b005b61031f610de0565b6040518080602001828103825283818151815260200191508051906020019080838360005b8381101561035f578082015181840152602081019050610344565b50505050905090810190601f16801561038c5780820380516001836020036101000a031916815260200191505b509250505060405180910390f35b6103dc600480360360208110156103b057600080fd5b81019080803573ffffffffffffffffffffffffffffffffffffffff169060200190929190505050610e82565b005b61042a600480360360408110156103f457600080fd5b8101908080359060200190929190803573ffffffffffffffffffffffffffffffffffffffff169060200190929190505050610fba565b005b6104346110e9565b604051808273ffffffffffffffffffffffffffffffffffffffff16815260200191505060405180910390f35b610468611119565b005b6104ac6004803603602081101561048057600080fd5b81019080803573ffffffffffffffffffffffffffffffffffffffff16906020019092919050505061129f565b005b6104b661141f565b604051808273ffffffffffffffffffffffffffffffffffffffff16815260200191505060405180910390f35b6104ea61144f565b604051808273ffffffffffffffffffffffffffffffffffffffff16815260200191505060405180910390f35b61051e611478565b604051808273ffffffffffffffffffffffffffffffffffffffff16815260200191505060405180910390f35b61058c6004803603602081101561056057600080fd5b81019080803573ffffffffffffffffffffffffffffffffffffffff1690602001909291905050506114a8565b005b6105da600480360360408110156105a457600080fd5b8101908080359060200190929190803573ffffffffffffffffffffffffffffffffffffffff1690602001909291905050506115e0565b005b6105e4611757565b604051808273ffffffffffffffffffffffffffffffffffffffff16815260200191505060405180910390f35b6106526004803603602081101561062657600080fd5b81019080803573ffffffffffffffffffffffffffffffffffffffff169060200190929190505050611787565b005b61070d6004803603602081101561066a57600080fd5b810190808035906020019064010000000081111561068757600080fd5b82018360208201111561069957600080fd5b803590602001918460018302840111640100000000831117156106bb57600080fd5b91908080601f016020809104026020016040519081016040528093929190818152602001838380828437600081840152601f19601f820116905080830192505050505050509192919290505050611992565b005b610717611a66565b604051808273ffffffffffffffffffffffffffffffffffffffff16815260200191505060405180910390f35b600061076e7f4c454e44494e475f504f4f4c0000000000000000000000000000000000000000610773565b905090565b60006002600083815260200190815260200160002060009054906101000a900473ffffffffffffffffffffffffffffffffffffffff169050919050565b6107b8611a96565b73ffffffffffffffffffffffffffffffffffffffff1660008054906101000a900473ffffffffffffffffffffffffffffffffffffffff1673ffffffffffffffffffffffffffffffffffffffff1614610878576040517f08c379a00000000000000000000000000000000000000000000000000000000081526004018080602001828103825260208152602001807f4f776e61626c653a2063616c6c6572206973206e6f7420746865206f776e657281525060200191505060405180910390fd5b80600260007f504f4f4c5f41444d494e00000000000000000000000000000000000000000000815260200190815260200160002060006101000a81548173ffffffffffffffffffffffffffffffffffffffff021916908373ffffffffffffffffffffffffffffffffffffffff1602179055508073ffffffffffffffffffffffffffffffffffffffff167fc20a317155a9e7d84e06b716b4b355d47742ab9f8c5d630e7f556553f582430d60405160405180910390a250565b610938611a96565b73ffffffffffffffffffffffffffffffffffffffff1660008054906101000a900473ffffffffffffffffffffffffffffffffffffffff1673ffffffffffffffffffffffffffffffffffffffff16146109f8576040517f08c379a00000000000000000000000000000000000000000000000000000000081526004018080602001828103825260208152602001807f4f776e61626c653a2063616c6c6572206973206e6f7420746865206f776e657281525060200191505060405180910390fd5b80600260007f454d455247454e43595f41444d494e0000000000000000000000000000000000815260200190815260200160002060006101000a81548173ffffffffffffffffffffffffffffffffffffffff021916908373ffffffffffffffffffffffffffffffffffffffff1602179055508073ffffffffffffffffffffffffffffffffffffffff167fe19673fc861bfeb894cf2d6b7662505497ef31c0f489b742db24ee331082691660405160405180910390a250565b6000610adb7f4c454e44494e475f524154455f4f5241434c4500000000000000000000000000610773565b905090565b610ae8611a96565b73ffffffffffffffffffffffffffffffffffffffff1660008054906101000a900473ffffffffffffffffffffffffffffffffffffffff1673ffffffffffffffffffffffffffffffffffffffff1614610ba8576040517f08c379a00000000000000000000000000000000000000000000000000000000081526004018080602001828103825260208152602001807f4f776e61626c653a2063616c6c6572206973206e6f7420746865206f776e657281525060200191505060405180910390fd5b80600260007f434f4c4c41544552414c5f4d414e414745520000000000000000000000000000815260200190815260200160002060006101000a81548173ffffffffffffffffffffffffffffffffffffffff021916908373ffffffffffffffffffffffffffffffffffffffff1602179055508073ffffffffffffffffffffffffffffffffffffffff167f991888326f0eab3df6084aadb82bee6781b5c9aa75379e8bc50ae8693454163860405160405180910390a250565b610c68611a96565b73ffffffffffffffffffffffffffffffffffffffff1660008054906101000a900473ffffffffffffffffffffffffffffffffffffffff1673ffffffffffffffffffffffffffffffffffffffff1614610d28576040517f08c379a00000000000000000000000000000000000000000000000000000000081526004018080602001828103825260208152602001807f4f776e61626c653a2063616c6c6572206973206e6f7420746865206f776e657281525060200191505060405180910390fd5b80600260007f50524943455f4f5241434c450000000000000000000000000000000000000000815260200190815260200160002060006101000a81548173ffffffffffffffffffffffffffffffffffffffff021916908373ffffffffffffffffffffffffffffffffffffffff1602179055508073ffffffffffffffffffffffffffffffffffffffff167fefe8ab924ca486283a79dc604baa67add51afb82af1db8ac386ebbba643cdffd60405160405180910390a250565b606060018054600181600116156101000203166002900480601f016020809104026020016040519081016040528092919081815260200182805460018160011615610100020316600290048015610e785780601f10610e4d57610100808354040283529160200191610e78565b820191906000526020600020905b815481529060010190602001808311610e5b57829003601f168201915b5050505050905090565b610e8a611a96565b73ffffffffffffffffffffffffffffffffffffffff1660008054906101000a900473ffffffffffffffffffffffffffffffffffffffff1673ffffffffffffffffffffffffffffffffffffffff1614610f4a576040517f08c379a00000000000000000000000000000000000000000000000000000000081526004018080602001828103825260208152602001807f4f776e61626c653a2063616c6c6572206973206e6f7420746865206f776e657281525060200191505060405180910390fd5b610f747f4c454e44494e475f504f4f4c000000000000000000000000000000000000000082611a9e565b8073ffffffffffffffffffffffffffffffffffffffff167fc4e6c6cdf28d0edbd8bcf071d724d33cc2e7a30be7d06443925656e9cb492aa460405160405180910390a250565b610fc2611a96565b73ffffffffffffffffffffffffffffffffffffffff1660008054906101000a900473ffffffffffffffffffffffffffffffffffffffff1673ffffffffffffffffffffffffffffffffffffffff1614611082576040517f08c379a00000000000000000000000000000000000000000000000000000000081526004018080602001828103825260208152602001807f4f776e61626c653a2063616c6c6572206973206e6f7420746865206f776e657281525060200191505060405180910390fd5b61108c8282611a9e565b8073ffffffffffffffffffffffffffffffffffffffff167ff2689d5d5cd0c639e137642cae5d40afced201a1a0327e7ac9358461dc9fff318360016040518083815260200182151581526020019250505060405180910390a25050565b60006111147f434f4c4c41544552414c5f4d414e414745520000000000000000000000000000610773565b905090565b611121611a96565b73ffffffffffffffffffffffffffffffffffffffff1660008054906101000a900473ffffffffffffffffffffffffffffffffffffffff1673ffffffffffffffffffffffffffffffffffffffff16146111e1576040517f08c379a00000000000000000000000000000000000000000000000000000000081526004018080602001828103825260208152602001807f4f776e61626c653a2063616c6c6572206973206e6f7420746865206f776e657281525060200191505060405180910390fd5b600073ffffffffffffffffffffffffffffffffffffffff1660008054906101000a900473ffffffffffffffffffffffffffffffffffffffff1673ffffffffffffffffffffffffffffffffffffffff167f8be0079c531659141344cd1fd0a4f28419497f9722a3daafe3b4186f6b6457e060405160405180910390a360008060006101000a81548173ffffffffffffffffffffffffffffffffffffffff021916908373ffffffffffffffffffffffffffffffffffffffff160217905550565b6112a7611a96565b73ffffffffffffffffffffffffffffffffffffffff1660008054906101000a900473ffffffffffffffffffffffffffffffffffffffff1673ffffffffffffffffffffffffffffffffffffffff1614611367576040517f08c379a00000000000000000000000000000000000000000000000000000000081526004018080602001828103825260208152602001807f4f776e61626c653a2063616c6c6572206973206e6f7420746865206f776e657281525060200191505060405180910390fd5b80600260007f4c454e44494e475f524154455f4f5241434c4500000000000000000000000000815260200190815260200160002060006101000a81548173ffffffffffffffffffffffffffffffffffffffff021916908373ffffffffffffffffffffffffffffffffffffffff1602179055508073ffffffffffffffffffffffffffffffffffffffff167f5c29179aba6942020a8a2d38f65de02fb6b7f784e7f049ed3a3cab97621859b560405160405180910390a250565b600061144a7f4c454e44494e475f504f4f4c5f434f4e464947555241544f5200000000000000610773565b905090565b60008060009054906101000a900473ffffffffffffffffffffffffffffffffffffffff16905090565b60006114a37f504f4f4c5f41444d494e00000000000000000000000000000000000000000000610773565b905090565b6114b0611a96565b73ffffffffffffffffffffffffffffffffffffffff1660008054906101000a900473ffffffffffffffffffffffffffffffffffffffff1673ffffffffffffffffffffffffffffffffffffffff1614611570576040517f08c379a00000000000000000000000000000000000000000000000000000000081526004018080602001828103825260208152602001807f4f776e61626c653a2063616c6c6572206973206e6f7420746865206f776e657281525060200191505060405180910390fd5b61159a7f4c454e44494e475f504f4f4c5f434f4e464947555241544f520000000000000082611a9e565b8073ffffffffffffffffffffffffffffffffffffffff167fdfabe479bad36782fb1e77fbfddd4e382671713527e4786cfc93a022ae76372960405160405180910390a250565b6115e8611a96565b73ffffffffffffffffffffffffffffffffffffffff1660008054906101000a900473ffffffffffffffffffffffffffffffffffffffff1673ffffffffffffffffffffffffffffffffffffffff16146116a8576040517f08c379a00000000000000000000000000000000000000000000000000000000081526004018080602001828103825260208152602001807f4f776e61626c653a2063616c6c6572206973206e6f7420746865206f776e657281525060200191505060405180910390fd5b806002600084815260200190815260200160002060006101000a81548173ffffffffffffffffffffffffffffffffffffffff021916908373ffffffffffffffffffffffffffffffffffffffff1602179055508073ffffffffffffffffffffffffffffffffffffffff167ff2689d5d5cd0c639e137642cae5d40afced201a1a0327e7ac9358461dc9fff318360006040518083815260200182151581526020019250505060405180910390a25050565b60006117827f454d455247454e43595f41444d494e0000000000000000000000000000000000610773565b905090565b61178f611a96565b73ffffffffffffffffffffffffffffffffffffffff1660008054906101000a900473ffffffffffffffffffffffffffffffffffffffff1673ffffffffffffffffffffffffffffffffffffffff161461184f576040517f08c379a00000000000000000000000000000000000000000000000000000000081526004018080602001828103825260208152602001807f4f776e61626c653a2063616c6c6572206973206e6f7420746865206f776e657281525060200191505060405180910390fd5b600073ffffffffffffffffffffffffffffffffffffffff168173ffffffffffffffffffffffffffffffffffffffff1614156118d5576040517f08c379a00000000000000000000000000000000000000000000000000000000081526004018080602001828103825260268152602001806129fe6026913960400191505060405180910390fd5b8073ffffffffffffffffffffffffffffffffffffffff1660008054906101000a900473ffffffffffffffffffffffffffffffffffffffff1673ffffffffffffffffffffffffffffffffffffffff167f8be0079c531659141344cd1fd0a4f28419497f9722a3daafe3b4186f6b6457e060405160405180910390a3806000806101000a81548173ffffffffffffffffffffffffffffffffffffffff021916908373ffffffffffffffffffffffffffffffffffffffff16021790555050565b61199a611a96565b73ffffffffffffffffffffffffffffffffffffffff1660008054906101000a900473ffffffffffffffffffffffffffffffffffffffff1673ffffffffffffffffffffffffffffffffffffffff1614611a5a576040517f08c379a00000000000000000000000000000000000000000000000000000000081526004018080602001828103825260208152602001807f4f776e61626c653a2063616c6c6572206973206e6f7420746865206f776e657281525060200191505060405180910390fd5b611a6381611e8d565b50565b6000611a917f50524943455f4f5241434c450000000000000000000000000000000000000000610773565b905090565b600033905090565b60006002600084815260200190815260200160002060009054906101000a900473ffffffffffffffffffffffffffffffffffffffff1690506000819050606030604051602401808273ffffffffffffffffffffffffffffffffffffffff1681526020019150506040516020818303038152906040527fc4d66de8000000000000000000000000000000000000000000000000000000007bffffffffffffffffffffffffffffffffffffffffffffffffffffffff19166020820180517bffffffffffffffffffffffffffffffffffffffffffffffffffffffff83818316178352505050509050600073ffffffffffffffffffffffffffffffffffffffff168373ffffffffffffffffffffffffffffffffffffffff161415611d975730604051611bc590611f43565b808273ffffffffffffffffffffffffffffffffffffffff168152602001915050604051809103906000f080158015611c01573d6000803e3d6000fd5b5091508173ffffffffffffffffffffffffffffffffffffffff1663d1f5789485836040518363ffffffff1660e01b8152600401808373ffffffffffffffffffffffffffffffffffffffff16815260200180602001828103825283818151815260200191508051906020019080838360005b83811015611c8d578082015181840152602081019050611c72565b50505050905090810190601f168015611cba5780820380516001836020036101000a031916815260200191505b509350505050600060405180830381600087803b158015611cda57600080fd5b505af1158015611cee573d6000803e3d6000fd5b50505050816002600087815260200190815260200160002060006101000a81548173ffffffffffffffffffffffffffffffffffffffff021916908373ffffffffffffffffffffffffffffffffffffffff1602179055508173ffffffffffffffffffffffffffffffffffffffff167f1eb35cb4b5bbb23d152f3b4016a5a46c37a07ae930ed0956aba951e231142438866040518082815260200191505060405180910390a2611e86565b8173ffffffffffffffffffffffffffffffffffffffff16634f1ef28685836040518363ffffffff1660e01b8152600401808373ffffffffffffffffffffffffffffffffffffffff16815260200180602001828103825283818151815260200191508051906020019080838360005b83811015611e20578082015181840152602081019050611e05565b50505050905090810190601f168015611e4d5780820380516001836020036101000a031916815260200191505b509350505050600060405180830381600087803b158015611e6d57600080fd5b505af1158015611e81573d6000803e3d6000fd5b505050505b5050505050565b8060019080519060200190611ea3929190611f50565b507f5e667c32fd847cf8bce48ab3400175cbf107bdc82b2dea62e3364909dfaee799816040518080602001828103825283818151815260200191508051906020019080838360005b83811015611f06578082015181840152602081019050611eeb565b50505050905090810190601f168015611f335780820380516001836020036101000a031916815260200191505b509250505060405180910390a150565b610a1080611fee83390190565b828054600181600116156101000203166002900490600052602060002090601f016020900481019282601f10611f9157805160ff1916838001178555611fbf565b82800160010185558215611fbf579182015b82811115611fbe578251825591602001919060010190611fa3565b5b509050611fcc9190611fd0565b5090565b5b80821115611fe9576000816000905550600101611fd1565b509056fe60a060405234801561001057600080fd5b50604051610a10380380610a108339818101604052602081101561003357600080fd5b8101908080519060200190929190505050808073ffffffffffffffffffffffffffffffffffffffff1660808173ffffffffffffffffffffffffffffffffffffffff1660601b81525050505060805160601c61095c6100b4600039806102bc528061032a528061041b52806105fa528061064e52806107bf525061095c6000f3fe60806040526004361061004e5760003560e01c80633659cfe6146100595780634f1ef286146100aa5780635c60da1b14610143578063d1f5789414610184578063f851a4401461025f5761004f565b5b6100576102a0565b005b34801561006557600080fd5b506100a86004803603602081101561007c57600080fd5b81019080803573ffffffffffffffffffffffffffffffffffffffff1690602001909291905050506102ba565b005b610141600480360360408110156100c057600080fd5b81019080803573ffffffffffffffffffffffffffffffffffffffff169060200190929190803590602001906401000000008111156100fd57600080fd5b82018360208201111561010f57600080fd5b8035906020019184600183028401116401000000008311171561013157600080fd5b9091929391929390505050610328565b005b34801561014f57600080fd5b50610158610417565b604051808273ffffffffffffffffffffffffffffffffffffffff16815260200191505060405180910390f35b61025d6004803603604081101561019a57600080fd5b81019080803573ffffffffffffffffffffffffffffffffffffffff169060200190929190803590602001906401000000008111156101d757600080fd5b8201836020820111156101e957600080fd5b8035906020019184600183028401116401000000008311171561020b57600080fd5b91908080601f016020809104026020016040519081016040528093929190818152602001838380828437600081840152601f19601f820116905080830192505050505050509192919290505050610488565b005b34801561026b57600080fd5b506102746105f6565b604051808273ffffffffffffffffffffffffffffffffffffffff16815260200191505060405180910390f35b6102a8610680565b6102b86102b361068a565b6106bb565b565b7f000000000000000000000000000000000000000000000000000000000000000073ffffffffffffffffffffffffffffffffffffffff163373ffffffffffffffffffffffffffffffffffffffff16141561031c57610317816106e1565b610325565b6103246102a0565b5b50565b7f000000000000000000000000000000000000000000000000000000000000000073ffffffffffffffffffffffffffffffffffffffff163373ffffffffffffffffffffffffffffffffffffffff16141561040957610385836106e1565b60008373ffffffffffffffffffffffffffffffffffffffff168383604051808383808284378083019250505092505050600060405180830381855af49150503d80600081146103f0576040519150601f19603f3d011682016040523d82523d6000602084013e6103f5565b606091505b505090508061040357600080fd5b50610412565b6104116102a0565b5b505050565b60007f000000000000000000000000000000000000000000000000000000000000000073ffffffffffffffffffffffffffffffffffffffff163373ffffffffffffffffffffffffffffffffffffffff16141561047c5761047561068a565b9050610485565b6104846102a0565b5b90565b600073ffffffffffffffffffffffffffffffffffffffff166104a861068a565b73ffffffffffffffffffffffffffffffffffffffff16146104c857600080fd5b60017f360894a13ba1a3210667c828492db98dca3e2076cc3735a920a3ca505d382bbd60001c0360001b7f360894a13ba1a3210667c828492db98dca3e2076cc3735a920a3ca505d382bbc60001b1461051d57fe5b61052682610730565b6000815111156105f25760008273ffffffffffffffffffffffffffffffffffffffff16826040518082805190602001908083835b6020831061057d578051825260208201915060208101905060208303925061055a565b6001836020036101000a038019825116818451168082178552505050505050905001915050600060405180830381855af49150503d80600081146105dd576040519150601f19603f3d011682016040523d82523d6000602084013e6105e2565b606091505b50509050806105f057600080fd5b505b5050565b60007f000000000000000000000000000000000000000000000000000000000000000073ffffffffffffffffffffffffffffffffffffffff163373ffffffffffffffffffffffffffffffffffffffff161415610674577f0000000000000000000000000000000000000000000000000000000000000000905061067d565b61067c6102a0565b5b90565b6106886107bd565b565b6000807f360894a13ba1a3210667c828492db98dca3e2076cc3735a920a3ca505d382bbc60001b9050805491505090565b3660008037600080366000845af43d6000803e80600081146106dc573d6000f35b3d6000fd5b6106ea81610730565b8073ffffffffffffffffffffffffffffffffffffffff167fbc7cd75a20ee27fd9adebab32041f755214dbc6bffa90cc0225b39da2e5c2d3b60405160405180910390a250565b6107398161086c565b61078e576040517f08c379a000000000000000000000000000000000000000000000000000000000815260040180806020018281038252603b8152602001806108ec603b913960400191505060405180910390fd5b60007f360894a13ba1a3210667c828492db98dca3e2076cc3735a920a3ca505d382bbc60001b90508181555050565b7f000000000000000000000000000000000000000000000000000000000000000073ffffffffffffffffffffffffffffffffffffffff163373ffffffffffffffffffffffffffffffffffffffff161415610862576040517f08c379a00000000000000000000000000000000000000000000000000000000081526004018080602001828103825260328152602001806108ba6032913960400191505060405180910390fd5b61086a6108b7565b565b60008060007fc5d2460186f7233c927e7db2dcc703c0e500b653ca82273b7bfad8045d85a47060001b9050833f91508082141580156108ae57506000801b8214155b92505050919050565b56fe43616e6e6f742063616c6c2066616c6c6261636b2066756e6374696f6e2066726f6d207468652070726f78792061646d696e43616e6e6f742073657420612070726f787920696d706c656d656e746174696f6e20746f2061206e6f6e2d636f6e74726163742061646472657373a2646970667358221220eeb995c9edca1398ac023a536a1b73e94c240ffb93527a97b8e7e225a89b572d64736f6c634300060c00334f776e61626c653a206e6577206f776e657220697320746865207a65726f2061646472657373a2646970667358221220dcdb75f95288e6cb83010b558dbf515fab9a6b2958d275013d0485c3dd2eadc564736f6c634300060c0033",
  "immutableReferences": {},
  "source": "// SPDX-License-Identifier: agpl-3.0\npragma solidity 0.6.12;\n\nimport {Ownable} from '../../dependencies/openzeppelin/contracts/Ownable.sol';\n\n// Prettier ignore to prevent buidler flatter bug\n// prettier-ignore\nimport {InitializableImmutableAdminUpgradeabilityProxy} from '../libraries/aave-upgradeability/InitializableImmutableAdminUpgradeabilityProxy.sol';\n\nimport {ILendingPoolAddressesProvider} from '../../interfaces/ILendingPoolAddressesProvider.sol';\n\n/**\n * @title LendingPoolAddressesProvider contract\n * @dev Main registry of addresses part of or connected to the protocol, including permissioned roles\n * - Acting also as factory of proxies and admin of those, so with right to change its implementations\n * - Owned by the Aave Governance\n * @author Aave\n **/\ncontract LendingPoolAddressesProvider is Ownable, ILendingPoolAddressesProvider {\n  string private _marketId;\n  mapping(bytes32 => address) private _addresses;\n\n  bytes32 private constant LENDING_POOL = 'LENDING_POOL';\n  bytes32 private constant LENDING_POOL_CONFIGURATOR = 'LENDING_POOL_CONFIGURATOR';\n  bytes32 private constant POOL_ADMIN = 'POOL_ADMIN';\n  bytes32 private constant EMERGENCY_ADMIN = 'EMERGENCY_ADMIN';\n  bytes32 private constant LENDING_POOL_COLLATERAL_MANAGER = 'COLLATERAL_MANAGER';\n  bytes32 private constant PRICE_ORACLE = 'PRICE_ORACLE';\n  bytes32 private constant LENDING_RATE_ORACLE = 'LENDING_RATE_ORACLE';\n\n  constructor(string memory marketId) public {\n    _setMarketId(marketId);\n  }\n\n  /**\n   * @dev Returns the id of the Aave market to which this contracts points to\n   * @return The market id\n   **/\n  function getMarketId() external view override returns (string memory) {\n    return _marketId;\n  }\n\n  /**\n   * @dev Allows to set the market which this LendingPoolAddressesProvider represents\n   * @param marketId The market id\n   */\n  function setMarketId(string memory marketId) external override onlyOwner {\n    _setMarketId(marketId);\n  }\n\n  /**\n   * @dev General function to update the implementation of a proxy registered with\n   * certain `id`. If there is no proxy registered, it will instantiate one and\n   * set as implementation the `implementationAddress`\n   * IMPORTANT Use this function carefully, only for ids that don't have an explicit\n   * setter function, in order to avoid unexpected consequences\n   * @param id The id\n   * @param implementationAddress The address of the new implementation\n   */\n  function setAddressAsProxy(bytes32 id, address implementationAddress)\n    external\n    override\n    onlyOwner\n  {\n    _updateImpl(id, implementationAddress);\n    emit AddressSet(id, implementationAddress, true);\n  }\n\n  /**\n   * @dev Sets an address for an id replacing the address saved in the addresses map\n   * IMPORTANT Use this function carefully, as it will do a hard replacement\n   * @param id The id\n   * @param newAddress The address to set\n   */\n  function setAddress(bytes32 id, address newAddress) external override onlyOwner {\n    _addresses[id] = newAddress;\n    emit AddressSet(id, newAddress, false);\n  }\n\n  /**\n   * @dev Returns an address by id\n   * @return The address\n   */\n  function getAddress(bytes32 id) public view override returns (address) {\n    return _addresses[id];\n  }\n\n  /**\n   * @dev Returns the address of the LendingPool proxy\n   * @return The LendingPool proxy address\n   **/\n  function getLendingPool() external view override returns (address) {\n    return getAddress(LENDING_POOL);\n  }\n\n  /**\n   * @dev Updates the implementation of the LendingPool, or creates the proxy\n   * setting the new `pool` implementation on the first time calling it\n   * @param pool The new LendingPool implementation\n   **/\n  function setLendingPoolImpl(address pool) external override onlyOwner {\n    _updateImpl(LENDING_POOL, pool);\n    emit LendingPoolUpdated(pool);\n  }\n\n  /**\n   * @dev Returns the address of the LendingPoolConfigurator proxy\n   * @return The LendingPoolConfigurator proxy address\n   **/\n  function getLendingPoolConfigurator() external view override returns (address) {\n    return getAddress(LENDING_POOL_CONFIGURATOR);\n  }\n\n  /**\n   * @dev Updates the implementation of the LendingPoolConfigurator, or creates the proxy\n   * setting the new `configurator` implementation on the first time calling it\n   * @param configurator The new LendingPoolConfigurator implementation\n   **/\n  function setLendingPoolConfiguratorImpl(address configurator) external override onlyOwner {\n    _updateImpl(LENDING_POOL_CONFIGURATOR, configurator);\n    emit LendingPoolConfiguratorUpdated(configurator);\n  }\n\n  /**\n   * @dev Returns the address of the LendingPoolCollateralManager. Since the manager is used\n   * through delegateCall within the LendingPool contract, the proxy contract pattern does not work properly hence\n   * the addresses are changed directly\n   * @return The address of the LendingPoolCollateralManager\n   **/\n\n  function getLendingPoolCollateralManager() external view override returns (address) {\n    return getAddress(LENDING_POOL_COLLATERAL_MANAGER);\n  }\n\n  /**\n   * @dev Updates the address of the LendingPoolCollateralManager\n   * @param manager The new LendingPoolCollateralManager address\n   **/\n  function setLendingPoolCollateralManager(address manager) external override onlyOwner {\n    _addresses[LENDING_POOL_COLLATERAL_MANAGER] = manager;\n    emit LendingPoolCollateralManagerUpdated(manager);\n  }\n\n  /**\n   * @dev The functions below are getters/setters of addresses that are outside the context\n   * of the protocol hence the upgradable proxy pattern is not used\n   **/\n\n  function getPoolAdmin() external view override returns (address) {\n    return getAddress(POOL_ADMIN);\n  }\n\n  function setPoolAdmin(address admin) external override onlyOwner {\n    _addresses[POOL_ADMIN] = admin;\n    emit ConfigurationAdminUpdated(admin);\n  }\n\n  function getEmergencyAdmin() external view override returns (address) {\n    return getAddress(EMERGENCY_ADMIN);\n  }\n\n  function setEmergencyAdmin(address emergencyAdmin) external override onlyOwner {\n    _addresses[EMERGENCY_ADMIN] = emergencyAdmin;\n    emit EmergencyAdminUpdated(emergencyAdmin);\n  }\n\n  function getPriceOracle() external view override returns (address) {\n    return getAddress(PRICE_ORACLE);\n  }\n\n  function setPriceOracle(address priceOracle) external override onlyOwner {\n    _addresses[PRICE_ORACLE] = priceOracle;\n    emit PriceOracleUpdated(priceOracle);\n  }\n\n  function getLendingRateOracle() external view override returns (address) {\n    return getAddress(LENDING_RATE_ORACLE);\n  }\n\n  function setLendingRateOracle(address lendingRateOracle) external override onlyOwner {\n    _addresses[LENDING_RATE_ORACLE] = lendingRateOracle;\n    emit LendingRateOracleUpdated(lendingRateOracle);\n  }\n\n  /**\n   * @dev Internal function to update the implementation of a specific proxied component of the protocol\n   * - If there is no proxy registered in the given `id`, it creates the proxy setting `newAdress`\n   *   as implementation and calls the initialize() function on the proxy\n   * - If there is already a proxy registered, it just updates the implementation to `newAddress` and\n   *   calls the initialize() function via upgradeToAndCall() in the proxy\n   * @param id The id of the proxy to be updated\n   * @param newAddress The address of the new implementation\n   **/\n  function _updateImpl(bytes32 id, address newAddress) internal {\n    address payable proxyAddress = payable(_addresses[id]);\n\n    InitializableImmutableAdminUpgradeabilityProxy proxy =\n      InitializableImmutableAdminUpgradeabilityProxy(proxyAddress);\n    bytes memory params = abi.encodeWithSignature('initialize(address)', address(this));\n\n    if (proxyAddress == address(0)) {\n      proxy = new InitializableImmutableAdminUpgradeabilityProxy(address(this));\n      proxy.initialize(newAddress, params);\n      _addresses[id] = address(proxy);\n      emit ProxyCreated(id, address(proxy));\n    } else {\n      proxy.upgradeToAndCall(newAddress, params);\n    }\n  }\n\n  function _setMarketId(string memory marketId) internal {\n    _marketId = marketId;\n    emit MarketIdSet(marketId);\n  }\n}\n",
  "sourcePath": "@aave/protocol-v2/contracts/protocol/configuration/LendingPoolAddressesProvider.sol",
  "compiler": {
    "name": "solc",
    "version": "0.6.12+commit.27d51765.Emscripten.clang"
  },
  "schemaVersion": "3.4.1",
  "updatedAt": "2021-05-18T00:35:30.918Z",
  "devdoc": {
    "author": "Aave*",
    "details": "Main registry of addresses part of or connected to the protocol, including permissioned roles - Acting also as factory of proxies and admin of those, so with right to change its implementations - Owned by the Aave Governance",
    "kind": "dev",
    "methods": {
      "getAddress(bytes32)": {
        "details": "Returns an address by id",
        "returns": {
          "_0": "The address"
        }
      },
      "getLendingPool()": {
        "details": "Returns the address of the LendingPool proxy",
        "returns": {
          "_0": "The LendingPool proxy address*"
        }
      },
      "getLendingPoolCollateralManager()": {
        "details": "Returns the address of the LendingPoolCollateralManager. Since the manager is used through delegateCall within the LendingPool contract, the proxy contract pattern does not work properly hence the addresses are changed directly",
        "returns": {
          "_0": "The address of the LendingPoolCollateralManager*"
        }
      },
      "getLendingPoolConfigurator()": {
        "details": "Returns the address of the LendingPoolConfigurator proxy",
        "returns": {
          "_0": "The LendingPoolConfigurator proxy address*"
        }
      },
      "getMarketId()": {
        "details": "Returns the id of the Aave market to which this contracts points to",
        "returns": {
          "_0": "The market id*"
        }
      },
      "getPoolAdmin()": {
        "details": "The functions below are getters/setters of addresses that are outside the context of the protocol hence the upgradable proxy pattern is not used*"
      },
      "owner()": {
        "details": "Returns the address of the current owner."
      },
      "renounceOwnership()": {
        "details": "Leaves the contract without owner. It will not be possible to call `onlyOwner` functions anymore. Can only be called by the current owner. NOTE: Renouncing ownership will leave the contract without an owner, thereby removing any functionality that is only available to the owner."
      },
      "setAddress(bytes32,address)": {
        "details": "Sets an address for an id replacing the address saved in the addresses map IMPORTANT Use this function carefully, as it will do a hard replacement",
        "params": {
          "id": "The id",
          "newAddress": "The address to set"
        }
      },
      "setAddressAsProxy(bytes32,address)": {
        "details": "General function to update the implementation of a proxy registered with certain `id`. If there is no proxy registered, it will instantiate one and set as implementation the `implementationAddress` IMPORTANT Use this function carefully, only for ids that don't have an explicit setter function, in order to avoid unexpected consequences",
        "params": {
          "id": "The id",
          "implementationAddress": "The address of the new implementation"
        }
      },
      "setLendingPoolCollateralManager(address)": {
        "details": "Updates the address of the LendingPoolCollateralManager",
        "params": {
          "manager": "The new LendingPoolCollateralManager address*"
        }
      },
      "setLendingPoolConfiguratorImpl(address)": {
        "details": "Updates the implementation of the LendingPoolConfigurator, or creates the proxy setting the new `configurator` implementation on the first time calling it",
        "params": {
          "configurator": "The new LendingPoolConfigurator implementation*"
        }
      },
      "setLendingPoolImpl(address)": {
        "details": "Updates the implementation of the LendingPool, or creates the proxy setting the new `pool` implementation on the first time calling it",
        "params": {
          "pool": "The new LendingPool implementation*"
        }
      },
      "setMarketId(string)": {
        "details": "Allows to set the market which this LendingPoolAddressesProvider represents",
        "params": {
          "marketId": "The market id"
        }
      },
      "transferOwnership(address)": {
        "details": "Transfers ownership of the contract to a new account (`newOwner`). Can only be called by the current owner."
      }
    },
    "title": "LendingPoolAddressesProvider contract",
    "version": 1
  },
  "userdoc": {
    "kind": "user",
    "methods": {},
    "version": 1
  }
}